{
  "_format": "hh-sol-artifact-1",
  "contractName": "ClaimSystem",
  "sourceName": "contracts/ClaimSystem.sol",
  "abi": [
    {
      "anonymous": false,
      "inputs": [
        {
          "indexed": true,
          "internalType": "uint256",
          "name": "claimId",
          "type": "uint256"
        },
        {
          "indexed": false,
          "internalType": "enum ClaimSystem.ClaimStatus",
          "name": "newStatus",
          "type": "uint8"
        }
      ],
      "name": "ClaimStatusUpdated",
      "type": "event"
    },
    {
      "anonymous": false,
      "inputs": [
        {
          "indexed": true,
          "internalType": "uint256",
          "name": "claimId",
          "type": "uint256"
        },
        {
          "indexed": true,
          "internalType": "address",
          "name": "claimant",
          "type": "address"
        }
      ],
      "name": "ClaimSubmitted",
      "type": "event"
    },
    {
      "inputs": [],
      "name": "claimCounter",
      "outputs": [
        {
          "internalType": "uint256",
          "name": "",
          "type": "uint256"
        }
      ],
      "stateMutability": "view",
      "type": "function"
    },
    {
      "inputs": [
        {
          "internalType": "uint256",
          "name": "",
          "type": "uint256"
        }
      ],
      "name": "claims",
      "outputs": [
        {
          "internalType": "string",
          "name": "policyNumber",
          "type": "string"
        },
        {
          "internalType": "string",
          "name": "claimType",
          "type": "string"
        },
        {
          "internalType": "string",
          "name": "description",
          "type": "string"
        },
        {
          "internalType": "uint256",
          "name": "amount",
          "type": "uint256"
        },
        {
          "internalType": "enum ClaimSystem.ClaimStatus",
          "name": "status",
          "type": "uint8"
        },
        {
          "internalType": "address",
          "name": "claimant",
          "type": "address"
        }
      ],
      "stateMutability": "view",
      "type": "function"
    },
    {
      "inputs": [
        {
          "internalType": "uint256",
          "name": "_claimId",
          "type": "uint256"
        }
      ],
      "name": "getClaim",
      "outputs": [
        {
          "components": [
            {
              "internalType": "string",
              "name": "policyNumber",
              "type": "string"
            },
            {
              "internalType": "string",
              "name": "claimType",
              "type": "string"
            },
            {
              "internalType": "string",
              "name": "description",
              "type": "string"
            },
            {
              "internalType": "uint256",
              "name": "amount",
              "type": "uint256"
            },
            {
              "internalType": "enum ClaimSystem.ClaimStatus",
              "name": "status",
              "type": "uint8"
            },
            {
              "internalType": "address",
              "name": "claimant",
              "type": "address"
            }
          ],
          "internalType": "struct ClaimSystem.Claim",
          "name": "",
          "type": "tuple"
        }
      ],
      "stateMutability": "view",
      "type": "function"
    },
    {
      "inputs": [
        {
          "internalType": "uint256",
          "name": "_claimId",
          "type": "uint256"
        }
      ],
      "name": "getClaimStatus",
      "outputs": [
        {
          "internalType": "enum ClaimSystem.ClaimStatus",
          "name": "",
          "type": "uint8"
        }
      ],
      "stateMutability": "view",
      "type": "function"
    },
    {
      "inputs": [
        {
          "internalType": "string",
          "name": "_policyNumber",
          "type": "string"
        },
        {
          "internalType": "string",
          "name": "_claimType",
          "type": "string"
        },
        {
          "internalType": "string",
          "name": "_description",
          "type": "string"
        },
        {
          "internalType": "uint256",
          "name": "_amount",
          "type": "uint256"
        }
      ],
      "name": "submitClaim",
      "outputs": [
        {
          "internalType": "uint256",
          "name": "",
          "type": "uint256"
        }
      ],
      "stateMutability": "nonpayable",
      "type": "function"
    },
    {
      "inputs": [
        {
          "internalType": "uint256",
          "name": "_claimId",
          "type": "uint256"
        },
        {
          "internalType": "enum ClaimSystem.ClaimStatus",
          "name": "_newStatus",
          "type": "uint8"
        }
      ],
      "name": "updateClaimStatus",
      "outputs": [],
      "stateMutability": "nonpayable",
      "type": "function"
    }
  ],
  "bytecode": "0x6080604052348015600f57600080fd5b5061134f8061001f6000396000f3fe608060405234801561001057600080fd5b50600436106100625760003560e01c80631d26f8421461006757806336dbd2f9146100975780634efa8f17146100c75780635aef2447146100e5578063a888c2cd14610115578063ab1f5b7c1461014a575b600080fd5b610081600480360381019061007c9190610ae9565b610166565b60405161008e9190610bb3565b60405180910390f35b6100b160048036038101906100ac9190610bce565b610303565b6040516100be9190610c72565b60405180910390f35b6100cf610374565b6040516100dc9190610bb3565b60405180910390f35b6100ff60048036038101906100fa9190610bce565b61037a565b60405161010c9190610e02565b60405180910390f35b61012f600480360381019061012a9190610bce565b61063c565b60405161014196959493929190610e7d565b60405180910390f35b610164600480360381019061015f9190610f18565b61083d565b005b60006001600081548092919061017b90610f87565b91905055506040518060c00160405280868152602001858152602001848152602001838152602001600060038111156101b7576101b6610bfb565b5b81526020013373ffffffffffffffffffffffffffffffffffffffff16815250600080600154815260200190815260200160002060008201518160000190816101ff91906111db565b50602082015181600101908161021591906111db565b50604082015181600201908161022b91906111db565b506060820151816003015560808201518160040160006101000a81548160ff0219169083600381111561026157610260610bfb565b5b021790555060a08201518160040160016101000a81548173ffffffffffffffffffffffffffffffffffffffff021916908373ffffffffffffffffffffffffffffffffffffffff1602179055509050503373ffffffffffffffffffffffffffffffffffffffff166001547f4dfa1d399fc3d748dfe023239c274bdaa380853d97eec367121715b4659d7fdb60405160405180910390a36001549050949350505050565b600060015482111561034a576040517f08c379a0000000000000000000000000000000000000000000000000000000008152600401610341906112f9565b60405180910390fd5b60008083815260200190815260200160002060040160009054906101000a900460ff169050919050565b60015481565b6103826108fb565b6001548211156103c7576040517f08c379a00000000000000000000000000000000000000000000000000000000081526004016103be906112f9565b60405180910390fd5b6000808381526020019081526020016000206040518060c00160405290816000820180546103f490610ffe565b80601f016020809104026020016040519081016040528092919081815260200182805461042090610ffe565b801561046d5780601f106104425761010080835404028352916020019161046d565b820191906000526020600020905b81548152906001019060200180831161045057829003601f168201915b5050505050815260200160018201805461048690610ffe565b80601f01602080910402602001604051908101604052809291908181526020018280546104b290610ffe565b80156104ff5780601f106104d4576101008083540402835291602001916104ff565b820191906000526020600020905b8154815290600101906020018083116104e257829003601f168201915b5050505050815260200160028201805461051890610ffe565b80601f016020809104026020016040519081016040528092919081815260200182805461054490610ffe565b80156105915780601f1061056657610100808354040283529160200191610591565b820191906000526020600020905b81548152906001019060200180831161057457829003601f168201915b50505050508152602001600382015481526020016004820160009054906101000a900460ff1660038111156105c9576105c8610bfb565b5b60038111156105db576105da610bfb565b5b81526020016004820160019054906101000a900473ffffffffffffffffffffffffffffffffffffffff1673ffffffffffffffffffffffffffffffffffffffff1673ffffffffffffffffffffffffffffffffffffffff16815250509050919050565b600060205280600052604060002060009150905080600001805461065f90610ffe565b80601f016020809104026020016040519081016040528092919081815260200182805461068b90610ffe565b80156106d85780601f106106ad576101008083540402835291602001916106d8565b820191906000526020600020905b8154815290600101906020018083116106bb57829003601f168201915b5050505050908060010180546106ed90610ffe565b80601f016020809104026020016040519081016040528092919081815260200182805461071990610ffe565b80156107665780601f1061073b57610100808354040283529160200191610766565b820191906000526020600020905b81548152906001019060200180831161074957829003601f168201915b50505050509080600201805461077b90610ffe565b80601f01602080910402602001604051908101604052809291908181526020018280546107a790610ffe565b80156107f45780601f106107c9576101008083540402835291602001916107f4565b820191906000526020600020905b8154815290600101906020018083116107d757829003601f168201915b5050505050908060030154908060040160009054906101000a900460ff16908060040160019054906101000a900473ffffffffffffffffffffffffffffffffffffffff16905086565b600154821115610882576040517f08c379a0000000000000000000000000000000000000000000000000000000008152600401610879906112f9565b60405180910390fd5b8060008084815260200190815260200160002060040160006101000a81548160ff021916908360038111156108ba576108b9610bfb565b5b0217905550817f2e7de2377c1e6f85a268dbe00519c60d65c9e38570a118be0eb07feb07fc89be826040516108ef9190610c72565b60405180910390a25050565b6040518060c00160405280606081526020016060815260200160608152602001600081526020016000600381111561093657610935610bfb565b5b8152602001600073ffffffffffffffffffffffffffffffffffffffff1681525090565b6000604051905090565b600080fd5b600080fd5b600080fd5b600080fd5b6000601f19601f8301169050919050565b7f4e487b7100000000000000000000000000000000000000000000000000000000600052604160045260246000fd5b6109c082610977565b810181811067ffffffffffffffff821117156109df576109de610988565b5b80604052505050565b60006109f2610959565b90506109fe82826109b7565b919050565b600067ffffffffffffffff821115610a1e57610a1d610988565b5b610a2782610977565b9050602081019050919050565b82818337600083830152505050565b6000610a56610a5184610a03565b6109e8565b905082815260208101848484011115610a7257610a71610972565b5b610a7d848285610a34565b509392505050565b600082601f830112610a9a57610a9961096d565b5b8135610aaa848260208601610a43565b91505092915050565b6000819050919050565b610ac681610ab3565b8114610ad157600080fd5b50565b600081359050610ae381610abd565b92915050565b60008060008060808587031215610b0357610b02610963565b5b600085013567ffffffffffffffff811115610b2157610b20610968565b5b610b2d87828801610a85565b945050602085013567ffffffffffffffff811115610b4e57610b4d610968565b5b610b5a87828801610a85565b935050604085013567ffffffffffffffff811115610b7b57610b7a610968565b5b610b8787828801610a85565b9250506060610b9887828801610ad4565b91505092959194509250565b610bad81610ab3565b82525050565b6000602082019050610bc86000830184610ba4565b92915050565b600060208284031215610be457610be3610963565b5b6000610bf284828501610ad4565b91505092915050565b7f4e487b7100000000000000000000000000000000000000000000000000000000600052602160045260246000fd5b60048110610c3b57610c3a610bfb565b5b50565b6000819050610c4c82610c2a565b919050565b6000610c5c82610c3e565b9050919050565b610c6c81610c51565b82525050565b6000602082019050610c876000830184610c63565b92915050565b600081519050919050565b600082825260208201905092915050565b60005b83811015610cc7578082015181840152602081019050610cac565b60008484015250505050565b6000610cde82610c8d565b610ce88185610c98565b9350610cf8818560208601610ca9565b610d0181610977565b840191505092915050565b610d1581610ab3565b82525050565b610d2481610c51565b82525050565b600073ffffffffffffffffffffffffffffffffffffffff82169050919050565b6000610d5582610d2a565b9050919050565b610d6581610d4a565b82525050565b600060c0830160008301518482036000860152610d888282610cd3565b91505060208301518482036020860152610da28282610cd3565b91505060408301518482036040860152610dbc8282610cd3565b9150506060830151610dd16060860182610d0c565b506080830151610de46080860182610d1b565b5060a0830151610df760a0860182610d5c565b508091505092915050565b60006020820190508181036000830152610e1c8184610d6b565b905092915050565b600082825260208201905092915050565b6000610e4082610c8d565b610e4a8185610e24565b9350610e5a818560208601610ca9565b610e6381610977565b840191505092915050565b610e7781610d4a565b82525050565b600060c0820190508181036000830152610e978189610e35565b90508181036020830152610eab8188610e35565b90508181036040830152610ebf8187610e35565b9050610ece6060830186610ba4565b610edb6080830185610c63565b610ee860a0830184610e6e565b979650505050505050565b60048110610f0057600080fd5b50565b600081359050610f1281610ef3565b92915050565b60008060408385031215610f2f57610f2e610963565b5b6000610f3d85828601610ad4565b9250506020610f4e85828601610f03565b9150509250929050565b7f4e487b7100000000000000000000000000000000000000000000000000000000600052601160045260246000fd5b6000610f9282610ab3565b91507fffffffffffffffffffffffffffffffffffffffffffffffffffffffffffffffff8203610fc457610fc3610f58565b5b600182019050919050565b7f4e487b7100000000000000000000000000000000000000000000000000000000600052602260045260246000fd5b6000600282049050600182168061101657607f821691505b60208210810361102957611028610fcf565b5b50919050565b60008190508160005260206000209050919050565b60006020601f8301049050919050565b600082821b905092915050565b6000600883026110917fffffffffffffffffffffffffffffffffffffffffffffffffffffffffffffffff82611054565b61109b8683611054565b95508019841693508086168417925050509392505050565b6000819050919050565b60006110d86110d36110ce84610ab3565b6110b3565b610ab3565b9050919050565b6000819050919050565b6110f2836110bd565b6111066110fe826110df565b848454611061565b825550505050565b600090565b61111b61110e565b6111268184846110e9565b505050565b5b8181101561114a5761113f600082611113565b60018101905061112c565b5050565b601f82111561118f576111608161102f565b61116984611044565b81016020851015611178578190505b61118c61118485611044565b83018261112b565b50505b505050565b600082821c905092915050565b60006111b260001984600802611194565b1980831691505092915050565b60006111cb83836111a1565b9150826002028217905092915050565b6111e482610c8d565b67ffffffffffffffff8111156111fd576111fc610988565b5b6112078254610ffe565b61121282828561114e565b600060209050601f8311600181146112455760008415611233578287015190505b61123d85826111bf565b8655506112a5565b601f1984166112538661102f565b60005b8281101561127b57848901518255600182019150602085019450602081019050611256565b868310156112985784890151611294601f8916826111a1565b8355505b6001600288020188555050505b505050505050565b7f496e76616c696420636c61696d20494400000000000000000000000000000000600082015250565b60006112e3601083610e24565b91506112ee826112ad565b602082019050919050565b60006020820190508181036000830152611312816112d6565b905091905056fea26469706673582212204f703fae28f6dd0232a6b49e9b3987fdbd767426695838a7ba3daf5f6d724cc764736f6c634300081c0033",
  "linkReferences": {},
  "deployedLinkReferences": {}
}